:100000000C942A000C9447000C9447000C94470071
:100010000C9447000C9447000C9447000C94470044
:100020000C9447000C9447000C9447000C94470034
:100030000C9447000C9447000C9447000C94470024
:100040000C9447000C9447000C9447000C94470014
:100050000C94470011241FBECFE5D4E0DEBFCDBF16
:1000600010E0A0E6B0E0EEE7F4E002C005900D92EB
:10007000A437B107D9F710E0A4E7B0E001C01D92A2
:10008000A837B107E1F70E9450010C943D020C948F
:10009000000085BBA898A998AA9A80EA9FE00197DA
:1000A000F1F7AA9808951F93182F807F0E944900A6
:1000B000812F8295807F0E9449001F9108958FEFC4
:1000C00084BB82E00E94530088E20E94530086E0D5
:1000D0000E9453008CE00E945300089585BBA89AAB
:1000E000A998AA9A80EA9FE00197F1F7AA98089543
:1000F0001F93182F807F0E946E00812F8295807F32
:100100000E946E001F910895CF93DF93EC018FE062
:1001100090E08C1B9D0B909377008093760061306C
:10012000710531F480EC0E9453009E01206C02C0E6
:100130009E012068822F0E945300DF91CF91089585
:10014000EF92FF920F931F93CF93DF938C01C0E048
:10015000D0E081E0E82EF12C1FC0C031D1052CF495
:100160000E947800C7010197F1F780917600909185
:100170007700C817D90719F480EC0E945300C031EA
:10018000D1053CF0F80180810E947800C7010197F9
:10019000F1F721960F5F1F4FF80180818823E9F660
:1001A000DF91CF911F910F91FF90EF900895EF9203
:1001B000FF920F931F937B018C0184E00E945300F8
:1001C000C801B7012AE030E040E050E00E940002A0
:1001D000862F805D0E947800C801B7012AE030E0D8
:1001E00040E050E00E940002CA01B9012AE030E07C
:1001F00040E050E00E940002862F805D0E9478005F
:1002000086E00E9453001F910F91FF90EF90089598
:10021000CF93DF93EC0184E00E945300209791F488
:1002200080E30E9478000EC0CE016AE070E00E9478
:10023000EC01805D0E947800CE016AE070E00E94CF
:10024000EC01EB01209781F786E00E945300DF91DB
:10025000CF91089581E00E94530080ED97E020E95E
:1002600031E0F9013197F1F70197D9F7089589E065
:1002700088BB089581E088BB089598E098BB89B356
:1002800087708530D9F7089591E098BB89B387705E
:100290008530D9F7089588E088BB089518BA089585
:1002A000FF920F931F93CF93DF931ABA0E945F00C0
:1002B0008FEF87BB09E018E0FF24F394C0E9D1E099
:1002C000CC9942C084E090E060E070E00E9484003D
:1002D00080E690E00E94A00089B390E08770907063
:1002E000892B09F408BB89B38770833009F418BBE4
:1002F00089B38770853009F408BB89B3877086306D
:1003000009F418BB89B38770873009F408BB89B337
:100310008770843029F4F8BA89B387708530D9F7AB
:1003200089B38770813029F418BB89B38770853011
:10033000D9F789B38770823029F418BB89B38770E5
:100340008530D9F7CC9BC8CFCC9BBACF84E090E066
:1003500060E070E00E94840085E690E00E94A000CA
:10036000209174003091750080917100909172001D
:100370002817390714F52F5F3F4F309375002093EE
:10038000740018BB84E090E061E070E00E9484009B
:100390008BE690E00E94A00080E395E7FE01319794
:1003A000F1F70197D9F784E090E061E070E00E94F6
:1003B00084008EE690E00E94A00089B387708530AB
:1003C00031F0CB9B02C018BBF8CFF8BAF6CF89B397
:1003D0008770853029F674CFAA1BBB1B51E107C07B
:1003E000AA1FBB1FA617B70710F0A61BB70B881FC5
:1003F000991F5A95A9F780959095BC01CD01089554
:1004000097FB092E05260ED057FD04D014D00AD034
:10041000001C38F450954095309521953F4F4F4F33
:100420005F4F0895F6F790958095709561957F4F91
:100430008F4F9F4F0895A1E21A2EAA1BBB1BFD01EF
:100440000DC0AA1FBB1FEE1FFF1FA217B307E407B3
:10045000F50720F0A21BB30BE40BF50B661F771F0B
:10046000881F991F1A9469F76095709580959095EB
:0E0470009B01AC01BD01CF010895F894FFCFB0
:10047E006C696E65006F62737461006F720020208C
:04048E000001000069
:00000001FF
