:100000000C942A000C943C000C943C000C943C0092
:100010000C943C000C943C000C943C000C943C0070
:100020000C943C000C943C000C943C000C943C0060
:100030000C943C000C943C000C943C000C943C0050
:100040000C943C000C943C000C943C000C943C0040
:100050000C943C0011241FBECFE5D4E0DEBFCDBF21
:1000600010E0A0E6B0E001C01D92A236B107E1F7B2
:100070000E9437010C94AA010C94000085BBA8983B
:10008000A998AA9A80EA9FE00197F1F7AA980895A3
:100090001F93182F807F0E943E00812F8295807FC2
:1000A0000E943E001F9108958FEF84BB82E00E9462
:1000B000480088E20E94480086E00E9448008CE0E8
:1000C0000E944800089585BBA89AA998AA9A80EA38
:1000D0009FE00197F1F7AA9808951F93182F807F4A
:1000E0000E946300812F8295807F0E9463001F9190
:1000F0000895CF93DF93EC018FE090E08C1B9D0B74
:1001000090936100809360006130710531F480EC60
:100110000E9448009E01206C02C09E012068822F30
:100120000E944800DF91CF910895EF92FF920F93C4
:100130001F93CF93DF938C01C0E0D0E081E0E82EE5
:10014000F12C1FC0C031D1052CF40E946D00C701F5
:100150000197F1F78091600090916100C817D9076D
:1001600019F480EC0E944800C031D1053CF0F80140
:1001700080810E946D00C7010197F1F721960F5F02
:100180001F4FF80180818823E9F6DF91CF911F91FD
:100190000F91FF90EF900895EF92FF920F931F93AE
:1001A0007B018C0184E00E944800C801B7012AE06D
:1001B00030E040E050E00E946D01862F805D0E949B
:1001C0006D00C801B7012AE030E040E050E00E9435
:1001D0006D01CA01B9012AE030E040E050E00E9420
:1001E0006D01862F805D0E946D0086E00E944800B0
:1001F0001F910F91FF90EF900895CF93DF93EC0143
:1002000084E00E944800209791F480E30E946D00F2
:100210000EC0CE016AE070E00E945901805D0E942C
:100220006D00CE016AE070E00E945901EB01209759
:1002300081F786E00E944800DF91CF91089581E028
:100240000E94480080ED97E020E931E0F901319704
:10025000F1F70197D9F7089589E088BB089588E000
:1002600088BB089581E088BB089518BA08951ABA2A
:100270000E9454008FEF87BB49E031E028E089B34A
:100280008370833011F448BBFACF89B38370813017
:1002900011F428BBF4CF89B38370823011F438BBDA
:1002A000EECF89B390E083709070892B41F718BA34
:1002B000E6CFAA1BBB1B51E107C0AA1FBB1FA61795
:1002C000B70710F0A61BB70B881F991F5A95A9F7FF
:1002D00080959095BC01CD01089597FB092E0526C8
:1002E0000ED057FD04D014D00AD0001C38F450951D
:1002F0004095309521953F4F4F4F5F4F0895F6F74A
:1003000090958095709561957F4F8F4F9F4F089581
:10031000A1E21A2EAA1BBB1BFD010DC0AA1FBB1F09
:10032000EE1FFF1FA217B307E407F50720F0A21B7B
:10033000B30BE40BF50B661F771F881F991F1A94E8
:1003400069F760957095809590959B01AC01BD0112
:08035000CF010895F894FFCFDE
:00000001FF
