:100000000C942A000C9447000C9447000C94470071
:100010000C9447000C9447000C9447000C94470044
:100020000C9447000C9447000C9447000C94470034
:100030000C9447000C9447000C9447000C94470024
:100040000C9447000C9447000C9447000C94470014
:100050000C94470011241FBECFE5D4E0DEBFCDBF16
:1000600010E0A0E6B0E0E0ECF4E002C005900D92F4
:10007000AC36B107D9F710E0ACE6B0E001C01D9294
:10008000AE36B107E1F70E9489010C945E020C9430
:10009000000085BBA898A998AA9A80EA9FE00197DA
:1000A000F1F7AA9808951F93182F807F0E944900A6
:1000B000812F8295807F0E9449001F9108958FEFC4
:1000C00084BB82E00E94530088E20E94530086E0D5
:1000D0000E9453008CE00E945300089585BBA89AAB
:1000E000A998AA9A80EA9FE00197F1F7AA98089543
:1000F0001F93182F807F0E946E00812F8295807F32
:100100000E946E001F910895CF93DF93EC018FE062
:1001100090E08C1B9D0B90936D0080936C00613080
:10012000710531F480EC0E9453009E01206C02C0E6
:100130009E012068822F0E945300DF91CF91089585
:10014000EF92FF920F931F93CF93DF938C01C0E048
:10015000D0E081E0E82EF12C1FC0C031D1052CF495
:100160000E947800C7010197F1F780916C0090918F
:100170006D00C817D90719F480EC0E945300C031F4
:10018000D1053CF0F80180810E947800C7010197F9
:10019000F1F721960F5F1F4FF80180818823E9F660
:1001A000DF91CF911F910F91FF90EF900895EF9203
:1001B000FF920F931F937B018C0184E00E945300F8
:1001C000C801B7012AE030E040E050E00E9421027F
:1001D000862F805D0E947800C801B7012AE030E0D8
:1001E00040E050E00E942102CA01B9012AE030E05B
:1001F00040E050E00E942102862F805D0E9478003E
:1002000086E00E9453001F910F91FF90EF90089598
:10021000CF93DF93EC0184E00E945300209791F488
:1002200080E30E9478000EC0CE016AE070E00E9478
:100230000D02805D0E947800CE016AE070E00E94AD
:100240000D02EB01209781F786E00E945300DF91B9
:10025000CF91089581E00E94530080ED97E020E95E
:1002600031E0F9013197F1F70197D9F7089589E065
:1002700088BB84EF91E020E931E0F9013197F1F793
:100280000197D9F718BA88EE93E020E931E0F90137
:100290003197F1F70197D9F7089581E088BB84EF92
:1002A00091E020E931E0F9013197F1F70197D9F7B1
:1002B00018BA88EE93E020E931E0F9013197F1F7BF
:1002C0000197D9F7089598E098BB89B38770853076
:1002D000D9F7089591E098BB89B387708530D9F735
:1002E000089588E088BB84EF91E020E931E0F901CE
:1002F0003197F1F70197D9F718BA88EE93E020E922
:1003000031E0F9013197F1F70197D9F7089518BA5B
:1003100008950F931F93CF93DF931ABA0E945F0043
:100320008FEF87BB01E018E0C0E9D1E0CC9947C06E
:1003300084E090E060E070E00E94840080E690E05D
:100340000E94A00089B390E087709070892B11F40F
:100350000E94370189B38770833011F40E947101C4
:1003600089B38770853011F40E94370189B3877093
:10037000863011F40E94710189B38770873011F4BF
:100380000E94370189B38770843029F408BB89B390
:1003900087708530D9F789B38770813029F418BB0D
:1003A00089B387708530D9F789B38770823029F493
:1003B00018BB89B387708530D9F7CC9BC3CFCC9B52
:1003C000B5CF84E090E060E070E00E94840085E6B4
:1003D00090E00E94A00088EE93E004C0FE013197F7
:1003E000F1F701970097D1F7CB9B03C00E947101F1
:1003F00011C089B38770853041F0CB9B03C00E9448
:100400007101F7CF0E944D01F4CF89B38770853019
:1004100009F48CCF88EE93E0E1CFAA1BBB1B51E11E
:1004200007C0AA1FBB1FA617B70710F0A61BB70B64
:10043000881F991F5A95A9F780959095BC01CD0109
:10044000089597FB092E05260ED057FD04D014D031
:100450000AD0001C38F450954095309521953F4FB7
:100460004F4F5F4F0895F6F7909580957095619581
:100470007F4F8F4F9F4F0895A1E21A2EAA1BBB1BDF
:10048000FD010DC0AA1FBB1FEE1FFF1FA217B30760
:10049000E407F50720F0A21BB30BE40BF50B661F76
:1004A000771F881F991F1A9469F76095709580953A
:1004B00090959B01AC01BD01CF010895F894FFCF49
:0C04C0006C696E65006F6273746100006F
:00000001FF
