:100000000C942A000C9447000C9447000C94470071
:100010000C9447000C9447000C9447000C94470044
:100020000C9447000C9447000C9447000C94470034
:100030000C9447000C9447000C9447000C94470024
:100040000C9447000C9447000C9447000C94470014
:100050000C94470011241FBECFE5D4E0DEBFCDBF16
:1000600010E0A0E6B0E0E0E8F3E002C005900D92F9
:10007000A636B107D9F710E0A6E6B0E001C01D92A0
:10008000AA36B107E1F70E9457010C94BE010C9407
:10009000000085BBA898A998AA9A80EA9FE00197DA
:1000A000F1F7AA9808951F93182F807F0E944900A6
:1000B000812F8295807F0E9449001F9108958FEFC4
:1000C00084BB82E00E94530088E20E94530086E0D5
:1000D0000E9453008CE00E945300089585BBA89AAB
:1000E000A998AA9A80EA9FE00197F1F7AA98089543
:1000F0001F93182F807F0E946E00812F8295807F32
:100100000E946E001F910895CF93DF93EC018FE062
:1001100090E08C1B9D0B9093690080936800613088
:10012000710531F480EC0E9453009E01206C02C0E6
:100130009E012068822F0E945300DF91CF91089585
:10014000EF92FF920F931F93CF93DF938C01C0E048
:10015000D0E081E0E82EF12C1FC0C031D1052CF495
:100160000E947800C7010197F1F780916800909193
:100170006900C817D90719F480EC0E945300C031F8
:10018000D1053CF0F80180810E947800C7010197F9
:10019000F1F721960F5F1F4FF80180818823E9F660
:1001A000DF91CF911F910F91FF90EF900895EF9203
:1001B000FF920F931F937B018C0184E00E945300F8
:1001C000C801B7012AE030E040E050E00E94810120
:1001D000862F805D0E947800C801B7012AE030E0D8
:1001E00040E050E00E948101CA01B9012AE030E0FC
:1001F00040E050E00E948101862F805D0E947800DF
:1002000086E00E9453001F910F91FF90EF90089598
:10021000CF93DF93EC0184E00E945300209791F488
:1002200080E30E9478000EC0CE016AE070E00E9478
:100230006D01805D0E947800CE016AE070E00E944E
:100240006D01EB01209781F786E00E945300DF915A
:10025000CF91089581E00E94530080ED97E020E95E
:1002600031E0F9013197F1F70197D9F7089589B392
:1002700090E087709070892BD1F780916600909103
:1002800067000196909367008093660084E090E099
:1002900060E070E00E9484006091660070916700E9
:1002A000882777FD8095982F0E94D70008951ABA65
:1002B0000E945F008FEF87BB84E090E061E070E018
:1002C0000E94840080E690E00E94A00089B38770BD
:1002D0008130E1F70E943701F9CFAA1BBB1B51E126
:1002E00007C0AA1FBB1FA617B70710F0A61BB70BA6
:1002F000881F991F5A95A9F780959095BC01CD014B
:10030000089597FB092E05260ED057FD04D014D072
:100310000AD0001C38F450954095309521953F4FF8
:100320004F4F5F4F0895F6F79095809570956195C2
:100330007F4F8F4F9F4F0895A1E21A2EAA1BBB1B20
:10034000FD010DC0AA1FBB1FEE1FFF1FA217B307A1
:10035000E407F50720F0A21BB30BE40BF50B661FB7
:10036000771F881F991F1A9469F76095709580957B
:1003700090959B01AC01BD01CF010895F894FFCF8A
:06038000776F726B0000B4
:00000001FF
