:100000000C942A000C9447000C9447000C94470071
:100010000C9447000C9447000C9447000C94470044
:100020000C9447000C9447000C9447000C94470034
:100030000C9447000C9447000C9447000C94470024
:100040000C9447000C9447000C9447000C94470014
:100050000C94470011241FBECFE5D4E0DEBFCDBF16
:1000600010E0A0E6B0E0EEEDF4E002C005900D92E5
:10007000A838B107D9F710E0A8E8B0E001C01D9298
:10008000AC38B107E1F70E94E4010C946D020C94C6
:10009000000085BBA898A998AA9A80EA9FE00197DA
:1000A000F1F7AA9808951F93182F807F0E944900A6
:1000B000812F8295807F0E9449001F9108958FEFC4
:1000C00084BB82E00E94530088E20E94530086E0D5
:1000D0000E9453008CE00E945300089585BBA89AAB
:1000E000A998AA9A80EA9FE00197F1F7AA98089543
:1000F0001F93182F807F0E946E00812F8295807F32
:100100000E946E001F910895CF93DF93EC018FE062
:1001100090E08C1B9D0B90938B0080938A00613044
:10012000710531F480EC0E9453009E01206C02C0E6
:100130009E012068822F0E945300DF91CF91089585
:10014000EF92FF920F931F93CF93DF938C01C0E048
:10015000D0E081E0E82EF12C1FC0C031D1052CF495
:100160000E947800C7010197F1F780918A00909171
:100170008B00C817D90719F480EC0E945300C031D6
:10018000D1053CF0F80180810E947800C7010197F9
:10019000F1F721960F5F1F4FF80180818823E9F660
:1001A000DF91CF911F910F91FF90EF900895EF9203
:1001B000FF920F931F937B018C0184E00E945300F8
:1001C000C801B7012AE030E040E050E00E94300270
:1001D000862F805D0E947800C801B7012AE030E0D8
:1001E00040E050E00E943002CA01B9012AE030E04C
:1001F00040E050E00E943002862F805D0E9478002F
:1002000086E00E9453001F910F91FF90EF90089598
:10021000CF93DF93EC0184E00E945300209791F488
:1002200080E30E9478000EC0CE016AE070E00E9478
:100230001C02805D0E947800CE016AE070E00E949E
:100240001C02EB01209781F786E00E945300DF91AA
:10025000CF91089581E00E94530080ED97E020E95E
:1002600031E0F9013197F1F70197D9F7089584E06A
:1002700090E060E070E00E94840080E690E00E94E0
:10028000A00089E088BB089584E090E060E070E021
:100290000E94840085E690E00E94A00088E088BB70
:1002A000089584E090E060E070E00E9484008AE6B7
:1002B00090E00E94A00081E088BB089584E090E077
:1002C00060E070E00E9484008FE690E00E94A00051
:1002D00018BA08951F93CF93DF9319E0C0E9D1E0D6
:1002E00084E090E060E070E00E94840083E790E0AA
:1002F0000E94A00018BB84EF91E0FE013197F1F756
:100300000197D9F718BA80E293E0FE013197F1F72F
:100310000197D9F789B38770853011F780918800EC
:10032000909189000196909389008093880084E0E1
:1003300090E061E070E00E9484006091880070911C
:100340008900882777FD8095982F0E94D700DF913C
:10035000CF911F9108951F9316E018BB84E090E0A1
:1003600060E070E00E94840088E790E00E94A000B6
:1003700089B38770873089F31F9108951F9311E027
:1003800084E090E060E070E00E9484008DE790E0FF
:100390000E94A00018BB89B38770853089F71F9130
:1003A00008951F9318E084E090E060E070E00E9400
:1003B000840082E890E00E94A00018BB89B3877097
:1003C000853089F71F9108951ABA0E945F008FEF58
:1003D00087BB89B390E087709070892B11F40E94DD
:1003E0006A0189B38770813011F40E94D10189B309
:1003F0008770823011F40E94370189B3877083308F
:1004000011F40E94D10189B38770843011F40E94E5
:10041000BE0189B38770853011F40E94370189B31A
:100420008770863011F40E94BE0189B387708730CF
:1004300081F60E943701CDCFAA1BBB1B51E107C03B
:10044000AA1FBB1FA617B70710F0A61BB70B881F64
:10045000991F5A95A9F780959095BC01CD010895F3
:1004600097FB092E05260ED057FD04D014D00AD0D4
:10047000001C38F450954095309521953F4F4F4FD3
:100480005F4F0895F6F790958095709561957F4F31
:100490008F4F9F4F0895A1E21A2EAA1BBB1BFD018F
:1004A0000DC0AA1FBB1FEE1FFF1FA217B307E40753
:1004B000F50720F0A21BB30BE40BF50B661F771FAB
:1004C000881F991F1A9469F760957095809590958B
:0E04D0009B01AC01BD01CF010895F894FFCF50
:1004DE0066776464006C65667400726768740066A3
:1004EE007764006A756E63006261636B006F6E7491
:0804FE0072006F6E746C0000C7
:00000001FF
